{
  "_format": "hh-sol-artifact-1",
  "contractName": "HabitStaking",
  "sourceName": "contracts/Habit.sol",
  "abi": [
    {
      "inputs": [],
      "name": "ReentrancyGuardReentrantCall",
      "type": "error"
    },
    {
      "anonymous": false,
      "inputs": [
        {
          "indexed": true,
          "internalType": "address",
          "name": "therapist",
          "type": "address"
        },
        {
          "indexed": true,
          "internalType": "address",
          "name": "user",
          "type": "address"
        },
        {
          "indexed": false,
          "internalType": "uint256",
          "name": "bookingId",
          "type": "uint256"
        },
        {
          "indexed": false,
          "internalType": "string",
          "name": "ipfsCID",
          "type": "string"
        }
      ],
      "name": "ReportUploaded",
      "type": "event"
    },
    {
      "anonymous": false,
      "inputs": [
        {
          "indexed": true,
          "internalType": "address",
          "name": "user",
          "type": "address"
        },
        {
          "indexed": true,
          "internalType": "address",
          "name": "therapist",
          "type": "address"
        },
        {
          "indexed": false,
          "internalType": "uint256",
          "name": "bookingId",
          "type": "uint256"
        },
        {
          "indexed": false,
          "internalType": "uint256",
          "name": "sessionFee",
          "type": "uint256"
        }
      ],
      "name": "SessionBooked",
      "type": "event"
    },
    {
      "anonymous": false,
      "inputs": [
        {
          "indexed": true,
          "internalType": "uint256",
          "name": "bookingId",
          "type": "uint256"
        },
        {
          "indexed": true,
          "internalType": "address",
          "name": "cancelledBy",
          "type": "address"
        }
      ],
      "name": "SessionCancelled",
      "type": "event"
    },
    {
      "anonymous": false,
      "inputs": [
        {
          "indexed": true,
          "internalType": "uint256",
          "name": "bookingId",
          "type": "uint256"
        }
      ],
      "name": "SessionCompleted",
      "type": "event"
    },
    {
      "anonymous": false,
      "inputs": [
        {
          "indexed": true,
          "internalType": "address",
          "name": "user",
          "type": "address"
        },
        {
          "indexed": false,
          "internalType": "uint256",
          "name": "reward",
          "type": "uint256"
        },
        {
          "indexed": false,
          "internalType": "uint256",
          "name": "newStreak",
          "type": "uint256"
        }
      ],
      "name": "TaskCompleted",
      "type": "event"
    },
    {
      "anonymous": false,
      "inputs": [
        {
          "indexed": true,
          "internalType": "address",
          "name": "therapist",
          "type": "address"
        },
        {
          "indexed": false,
          "internalType": "string",
          "name": "name",
          "type": "string"
        }
      ],
      "name": "TherapistRegistered",
      "type": "event"
    },
    {
      "anonymous": false,
      "inputs": [
        {
          "indexed": true,
          "internalType": "address",
          "name": "user",
          "type": "address"
        },
        {
          "indexed": false,
          "internalType": "uint256",
          "name": "amount",
          "type": "uint256"
        }
      ],
      "name": "TokensRedeemed",
      "type": "event"
    },
    {
      "anonymous": false,
      "inputs": [
        {
          "indexed": true,
          "internalType": "address",
          "name": "user",
          "type": "address"
        },
        {
          "indexed": false,
          "internalType": "uint256",
          "name": "amount",
          "type": "uint256"
        },
        {
          "indexed": false,
          "internalType": "uint256",
          "name": "totalStaked",
          "type": "uint256"
        }
      ],
      "name": "TokensStaked",
      "type": "event"
    },
    {
      "anonymous": false,
      "inputs": [
        {
          "indexed": true,
          "internalType": "address",
          "name": "user",
          "type": "address"
        },
        {
          "indexed": false,
          "internalType": "uint256",
          "name": "amount",
          "type": "uint256"
        }
      ],
      "name": "TokensUnstaked",
      "type": "event"
    },
    {
      "inputs": [],
      "name": "MAX_HABIT_REWARD",
      "outputs": [
        {
          "internalType": "uint256",
          "name": "",
          "type": "uint256"
        }
      ],
      "stateMutability": "view",
      "type": "function"
    },
    {
      "inputs": [],
      "name": "MAX_STAKE_AMOUNT",
      "outputs": [
        {
          "internalType": "uint256",
          "name": "",
          "type": "uint256"
        }
      ],
      "stateMutability": "view",
      "type": "function"
    },
    {
      "inputs": [],
      "name": "MIN_SESSION_FEE",
      "outputs": [
        {
          "internalType": "uint256",
          "name": "",
          "type": "uint256"
        }
      ],
      "stateMutability": "view",
      "type": "function"
    },
    {
      "inputs": [
        {
          "internalType": "uint256",
          "name": "",
          "type": "uint256"
        }
      ],
      "name": "allBookings",
      "outputs": [
        {
          "internalType": "address",
          "name": "user",
          "type": "address"
        },
        {
          "internalType": "address",
          "name": "therapist",
          "type": "address"
        },
        {
          "internalType": "uint256",
          "name": "timestamp",
          "type": "uint256"
        },
        {
          "internalType": "uint256",
          "name": "sessionFee",
          "type": "uint256"
        },
        {
          "internalType": "string",
          "name": "encryptedReportCID",
          "type": "string"
        },
        {
          "internalType": "enum HabitStaking.BookingStatus",
          "name": "status",
          "type": "uint8"
        }
      ],
      "stateMutability": "view",
      "type": "function"
    },
    {
      "inputs": [
        {
          "internalType": "address",
          "name": "therapistAddr",
          "type": "address"
        },
        {
          "internalType": "uint256",
          "name": "sessionFee",
          "type": "uint256"
        }
      ],
      "name": "bookTherapist",
      "outputs": [],
      "stateMutability": "nonpayable",
      "type": "function"
    },
    {
      "inputs": [
        {
          "internalType": "uint256",
          "name": "bookingId",
          "type": "uint256"
        }
      ],
      "name": "cancelBooking",
      "outputs": [],
      "stateMutability": "nonpayable",
      "type": "function"
    },
    {
      "inputs": [
        {
          "internalType": "uint256",
          "name": "reward",
          "type": "uint256"
        }
      ],
      "name": "completeTask",
      "outputs": [],
      "stateMutability": "nonpayable",
      "type": "function"
    },
    {
      "inputs": [],
      "name": "deactivateTherapist",
      "outputs": [],
      "stateMutability": "nonpayable",
      "type": "function"
    },
    {
      "inputs": [
        {
          "internalType": "uint256",
          "name": "bookingId",
          "type": "uint256"
        }
      ],
      "name": "getBooking",
      "outputs": [
        {
          "components": [
            {
              "internalType": "address",
              "name": "user",
              "type": "address"
            },
            {
              "internalType": "address",
              "name": "therapist",
              "type": "address"
            },
            {
              "internalType": "uint256",
              "name": "timestamp",
              "type": "uint256"
            },
            {
              "internalType": "uint256",
              "name": "sessionFee",
              "type": "uint256"
            },
            {
              "internalType": "string",
              "name": "encryptedReportCID",
              "type": "string"
            },
            {
              "internalType": "enum HabitStaking.BookingStatus",
              "name": "status",
              "type": "uint8"
            }
          ],
          "internalType": "struct HabitStaking.Booking",
          "name": "",
          "type": "tuple"
        }
      ],
      "stateMutability": "view",
      "type": "function"
    },
    {
      "inputs": [],
      "name": "getContractStats",
      "outputs": [
        {
          "internalType": "uint256",
          "name": "totalStakedTokens",
          "type": "uint256"
        },
        {
          "internalType": "uint256",
          "name": "totalRewards",
          "type": "uint256"
        },
        {
          "internalType": "uint256",
          "name": "totalBookings",
          "type": "uint256"
        }
      ],
      "stateMutability": "view",
      "type": "function"
    },
    {
      "inputs": [
        {
          "internalType": "address",
          "name": "therapistAddr",
          "type": "address"
        }
      ],
      "name": "getTherapistBookings",
      "outputs": [
        {
          "components": [
            {
              "internalType": "address",
              "name": "user",
              "type": "address"
            },
            {
              "internalType": "address",
              "name": "therapist",
              "type": "address"
            },
            {
              "internalType": "uint256",
              "name": "timestamp",
              "type": "uint256"
            },
            {
              "internalType": "uint256",
              "name": "sessionFee",
              "type": "uint256"
            },
            {
              "internalType": "string",
              "name": "encryptedReportCID",
              "type": "string"
            },
            {
              "internalType": "enum HabitStaking.BookingStatus",
              "name": "status",
              "type": "uint8"
            }
          ],
          "internalType": "struct HabitStaking.Booking[]",
          "name": "",
          "type": "tuple[]"
        }
      ],
      "stateMutability": "view",
      "type": "function"
    },
    {
      "inputs": [
        {
          "internalType": "address",
          "name": "therapistAddr",
          "type": "address"
        }
      ],
      "name": "getTherapistData",
      "outputs": [
        {
          "internalType": "string",
          "name": "name",
          "type": "string"
        },
        {
          "internalType": "uint256",
          "name": "sessions",
          "type": "uint256"
        },
        {
          "internalType": "bool",
          "name": "active",
          "type": "bool"
        }
      ],
      "stateMutability": "view",
      "type": "function"
    },
    {
      "inputs": [
        {
          "internalType": "address",
          "name": "userAddr",
          "type": "address"
        }
      ],
      "name": "getUserBookings",
      "outputs": [
        {
          "components": [
            {
              "internalType": "address",
              "name": "user",
              "type": "address"
            },
            {
              "internalType": "address",
              "name": "therapist",
              "type": "address"
            },
            {
              "internalType": "uint256",
              "name": "timestamp",
              "type": "uint256"
            },
            {
              "internalType": "uint256",
              "name": "sessionFee",
              "type": "uint256"
            },
            {
              "internalType": "string",
              "name": "encryptedReportCID",
              "type": "string"
            },
            {
              "internalType": "enum HabitStaking.BookingStatus",
              "name": "status",
              "type": "uint8"
            }
          ],
          "internalType": "struct HabitStaking.Booking[]",
          "name": "",
          "type": "tuple[]"
        }
      ],
      "stateMutability": "view",
      "type": "function"
    },
    {
      "inputs": [
        {
          "internalType": "address",
          "name": "userAddr",
          "type": "address"
        }
      ],
      "name": "getUserData",
      "outputs": [
        {
          "internalType": "uint256",
          "name": "staked",
          "type": "uint256"
        },
        {
          "internalType": "uint256",
          "name": "earned",
          "type": "uint256"
        },
        {
          "internalType": "uint256",
          "name": "streak",
          "type": "uint256"
        },
        {
          "internalType": "bool",
          "name": "active",
          "type": "bool"
        }
      ],
      "stateMutability": "view",
      "type": "function"
    },
    {
      "inputs": [],
      "name": "nextBookingId",
      "outputs": [
        {
          "internalType": "uint256",
          "name": "",
          "type": "uint256"
        }
      ],
      "stateMutability": "view",
      "type": "function"
    },
    {
      "inputs": [],
      "name": "reactivateTherapist",
      "outputs": [],
      "stateMutability": "nonpayable",
      "type": "function"
    },
    {
      "inputs": [
        {
          "internalType": "uint256",
          "name": "amount",
          "type": "uint256"
        }
      ],
      "name": "redeemTokens",
      "outputs": [],
      "stateMutability": "nonpayable",
      "type": "function"
    },
    {
      "inputs": [
        {
          "internalType": "string",
          "name": "name",
          "type": "string"
        }
      ],
      "name": "registerTherapist",
      "outputs": [],
      "stateMutability": "nonpayable",
      "type": "function"
    },
    {
      "inputs": [
        {
          "internalType": "uint256",
          "name": "amount",
          "type": "uint256"
        }
      ],
      "name": "stakeTokens",
      "outputs": [],
      "stateMutability": "nonpayable",
      "type": "function"
    },
    {
      "inputs": [
        {
          "internalType": "address",
          "name": "",
          "type": "address"
        },
        {
          "internalType": "uint256",
          "name": "",
          "type": "uint256"
        }
      ],
      "name": "therapistBookings",
      "outputs": [
        {
          "internalType": "address",
          "name": "user",
          "type": "address"
        },
        {
          "internalType": "address",
          "name": "therapist",
          "type": "address"
        },
        {
          "internalType": "uint256",
          "name": "timestamp",
          "type": "uint256"
        },
        {
          "internalType": "uint256",
          "name": "sessionFee",
          "type": "uint256"
        },
        {
          "internalType": "string",
          "name": "encryptedReportCID",
          "type": "string"
        },
        {
          "internalType": "enum HabitStaking.BookingStatus",
          "name": "status",
          "type": "uint8"
        }
      ],
      "stateMutability": "view",
      "type": "function"
    },
    {
      "inputs": [
        {
          "internalType": "address",
          "name": "",
          "type": "address"
        }
      ],
      "name": "therapists",
      "outputs": [
        {
          "internalType": "address",
          "name": "therapistAddress",
          "type": "address"
        },
        {
          "internalType": "string",
          "name": "name",
          "type": "string"
        },
        {
          "internalType": "uint256",
          "name": "sessionCount",
          "type": "uint256"
        },
        {
          "internalType": "uint256",
          "name": "totalEarnings",
          "type": "uint256"
        },
        {
          "internalType": "bool",
          "name": "isActive",
          "type": "bool"
        }
      ],
      "stateMutability": "view",
      "type": "function"
    },
    {
      "inputs": [],
      "name": "totalRewardsDistributed",
      "outputs": [
        {
          "internalType": "uint256",
          "name": "",
          "type": "uint256"
        }
      ],
      "stateMutability": "view",
      "type": "function"
    },
    {
      "inputs": [],
      "name": "totalStaked",
      "outputs": [
        {
          "internalType": "uint256",
          "name": "",
          "type": "uint256"
        }
      ],
      "stateMutability": "view",
      "type": "function"
    },
    {
      "inputs": [
        {
          "internalType": "uint256",
          "name": "amount",
          "type": "uint256"
        }
      ],
      "name": "unstakeTokens",
      "outputs": [],
      "stateMutability": "nonpayable",
      "type": "function"
    },
    {
      "inputs": [
        {
          "internalType": "uint256",
          "name": "bookingId",
          "type": "uint256"
        },
        {
          "internalType": "string",
          "name": "ipfsCID",
          "type": "string"
        }
      ],
      "name": "uploadEncryptedReport",
      "outputs": [],
      "stateMutability": "nonpayable",
      "type": "function"
    },
    {
      "inputs": [
        {
          "internalType": "address",
          "name": "",
          "type": "address"
        },
        {
          "internalType": "uint256",
          "name": "",
          "type": "uint256"
        }
      ],
      "name": "userBookings",
      "outputs": [
        {
          "internalType": "address",
          "name": "user",
          "type": "address"
        },
        {
          "internalType": "address",
          "name": "therapist",
          "type": "address"
        },
        {
          "internalType": "uint256",
          "name": "timestamp",
          "type": "uint256"
        },
        {
          "internalType": "uint256",
          "name": "sessionFee",
          "type": "uint256"
        },
        {
          "internalType": "string",
          "name": "encryptedReportCID",
          "type": "string"
        },
        {
          "internalType": "enum HabitStaking.BookingStatus",
          "name": "status",
          "type": "uint8"
        }
      ],
      "stateMutability": "view",
      "type": "function"
    },
    {
      "inputs": [
        {
          "internalType": "address",
          "name": "",
          "type": "address"
        }
      ],
      "name": "users",
      "outputs": [
        {
          "internalType": "uint256",
          "name": "stakedTokens",
          "type": "uint256"
        },
        {
          "internalType": "uint256",
          "name": "habitStreak",
          "type": "uint256"
        },
        {
          "internalType": "uint256",
          "name": "earnedTokens",
          "type": "uint256"
        },
        {
          "internalType": "uint256",
          "name": "lastTaskCompletion",
          "type": "uint256"
        },
        {
          "internalType": "bool",
          "name": "isActive",
          "type": "bool"
        }
      ],
      "stateMutability": "view",
      "type": "function"
    }
  ],
  "bytecode": "0x6080604052348015600f57600080fd5b5060016000819055506143b3806100276000396000f3fe608060405234801561001057600080fd5b50600436106101a95760003560e01c8063877c66c0116100f9578063dfe6b5d611610097578063e3a4d3a211610071578063e3a4d3a2146104bc578063ee172546146104f1578063ef3197c81461050f578063ffc9896b1461053f576101a9565b8063dfe6b5d614610462578063e1c5fde114610482578063e1e29558146104a0576101a9565b8063a821b174116100d3578063a821b174146103e5578063a87430ba146103ef578063d44480e814610423578063decb77b91461042d576101a9565b8063877c66c0146103915780638e7eee81146103ad578063a6e158f8146103c9576101a9565b8063608e4dd01161016657806380288b551161014057806380288b55146102ee578063817b1cd21461030a578063824313e51461032857806385803d9c1461035c576101a9565b8063608e4dd0146102865780636a5c841a146102a25780637547c7a3146102d2576101a9565b80630dca825e146101ae57806326f20c79146101ca5780632f92f1f2146101e8578063308d4c6c1461020657806337159f4a14610236578063566eb57b14610254575b600080fd5b6101c860048036038101906101c39190612db8565b610572565b005b6101d2610829565b6040516101df9190612df4565b60405180910390f35b6101f061082f565b6040516101fd9190612df4565b60405180910390f35b610220600480360381019061021b9190612e6d565b61083d565b60405161022d919061310a565b60405180910390f35b61023e610a68565b60405161024b9190612df4565b60405180910390f35b61026e60048036038101906102699190612e6d565b610a74565b60405161027d93929190613191565b60405180910390f35b6102a0600480360381019061029b9190612db8565b610bfb565b005b6102bc60048036038101906102b79190612db8565b610d53565b6040516102c99190613258565b60405180910390f35b6102ec60048036038101906102e79190612db8565b610f53565b005b610308600480360381019061030391906133af565b611157565b005b6103126113d2565b60405161031f9190612df4565b60405180910390f35b610342600480360381019061033d9190612e6d565b6113d8565b604051610353959493929190613407565b60405180910390f35b61037660048036038101906103719190612db8565b6114c3565b60405161038896959493929190613470565b60405180910390f35b6103ab60048036038101906103a691906134d8565b6115d4565b005b6103c760048036038101906103c29190613518565b611c48565b005b6103e360048036038101906103de9190612db8565b612088565b005b6103ed6121c7565b005b61040960048036038101906104049190612e6d565b6122f5565b60405161041a959493929190613574565b60405180910390f35b61042b612338565b005b610447600480360381019061044291906134d8565b612424565b60405161045996959493929190613470565b60405180910390f35b61046a612552565b604051610479939291906135c7565b60405180910390f35b61048a61256b565b6040516104979190612df4565b60405180910390f35b6104ba60048036038101906104b59190612db8565b612578565b005b6104d660048036038101906104d191906134d8565b612890565b6040516104e896959493929190613470565b60405180910390f35b6104f96129be565b6040516105069190612df4565b60405180910390f35b61052960048036038101906105249190612e6d565b6129c4565b604051610536919061310a565b60405180910390f35b61055960048036038101906105549190612e6d565b612bef565b60405161056994939291906135fe565b60405180910390f35b8060085481106105b7576040517f08c379a00000000000000000000000000000000000000000000000000000000081526004016105ae9061368f565b60405180910390fd5b60006007600084815260200190815260200160002090503373ffffffffffffffffffffffffffffffffffffffff168160000160009054906101000a900473ffffffffffffffffffffffffffffffffffffffff1673ffffffffffffffffffffffffffffffffffffffff16148061067b57503373ffffffffffffffffffffffffffffffffffffffff168160010160009054906101000a900473ffffffffffffffffffffffffffffffffffffffff1673ffffffffffffffffffffffffffffffffffffffff16145b6106ba576040517f08c379a00000000000000000000000000000000000000000000000000000000081526004016106b1906136fb565b60405180910390fd5b600060028111156106ce576106cd612f74565b5b8160050160009054906101000a900460ff1660028111156106f2576106f1612f74565b5b14610732576040517f08c379a000000000000000000000000000000000000000000000000000000000815260040161072990613767565b60405180910390fd5b60028160050160006101000a81548160ff0219169083600281111561075a57610759612f74565b5b02179055508060030154600360008360000160009054906101000a900473ffffffffffffffffffffffffffffffffffffffff1673ffffffffffffffffffffffffffffffffffffffff1673ffffffffffffffffffffffffffffffffffffffff16815260200190815260200160002060020160008282546107d991906137b6565b925050819055503373ffffffffffffffffffffffffffffffffffffffff16837f6065c5b68ef303a60e270e703f4fb95f8001292f7df8d4dcfacb0620acd9144d60405160405180910390a3505050565b60085481565b69d3c21bcecceda100000081565b6060600660008373ffffffffffffffffffffffffffffffffffffffff1673ffffffffffffffffffffffffffffffffffffffff168152602001908152602001600020805480602002602001604051908101604052809291908181526020016000905b82821015610a5d57838290600052602060002090600602016040518060c00160405290816000820160009054906101000a900473ffffffffffffffffffffffffffffffffffffffff1673ffffffffffffffffffffffffffffffffffffffff1673ffffffffffffffffffffffffffffffffffffffff1681526020016001820160009054906101000a900473ffffffffffffffffffffffffffffffffffffffff1673ffffffffffffffffffffffffffffffffffffffff1673ffffffffffffffffffffffffffffffffffffffff168152602001600282015481526020016003820154815260200160048201805461099190613819565b80601f01602080910402602001604051908101604052809291908181526020018280546109bd90613819565b8015610a0a5780601f106109df57610100808354040283529160200191610a0a565b820191906000526020600020905b8154815290600101906020018083116109ed57829003601f168201915b505050505081526020016005820160009054906101000a900460ff166002811115610a3857610a37612f74565b5b6002811115610a4a57610a49612f74565b5b815250508152602001906001019061089e565b505050509050919050565b678ac7230489e8000081565b60606000806000600460008673ffffffffffffffffffffffffffffffffffffffff1673ffffffffffffffffffffffffffffffffffffffff1681526020019081526020016000206040518060a00160405290816000820160009054906101000a900473ffffffffffffffffffffffffffffffffffffffff1673ffffffffffffffffffffffffffffffffffffffff1673ffffffffffffffffffffffffffffffffffffffff168152602001600182018054610b2b90613819565b80601f0160208091040260200160405190810160405280929190818152602001828054610b5790613819565b8015610ba45780601f10610b7957610100808354040283529160200191610ba4565b820191906000526020600020905b815481529060010190602001808311610b8757829003601f168201915b5050505050815260200160028201548152602001600382015481526020016004820160009054906101000a900460ff1615151515815250509050806020015181604001518260800151935093509350509193909250565b610c03612caa565b80600360003373ffffffffffffffffffffffffffffffffffffffff1673ffffffffffffffffffffffffffffffffffffffff168152602001908152602001600020600001541015610c88576040517f08c379a0000000000000000000000000000000000000000000000000000000008152600401610c7f90613896565b60405180910390fd5b80600360003373ffffffffffffffffffffffffffffffffffffffff1673ffffffffffffffffffffffffffffffffffffffff1681526020019081526020016000206000016000828254610cda91906138b6565b925050819055508060016000828254610cf391906138b6565b925050819055503373ffffffffffffffffffffffffffffffffffffffff167f9845e367b683334e5c0b12d7b81721ac518e649376fa65e3d68324e8f34f267982604051610d409190612df4565b60405180910390a2610d50612cf0565b50565b610d5b612cfa565b816008548110610da0576040517f08c379a0000000000000000000000000000000000000000000000000000000008152600401610d979061368f565b60405180910390fd5b600760008481526020019081526020016000206040518060c00160405290816000820160009054906101000a900473ffffffffffffffffffffffffffffffffffffffff1673ffffffffffffffffffffffffffffffffffffffff1673ffffffffffffffffffffffffffffffffffffffff1681526020016001820160009054906101000a900473ffffffffffffffffffffffffffffffffffffffff1673ffffffffffffffffffffffffffffffffffffffff1673ffffffffffffffffffffffffffffffffffffffff1681526020016002820154815260200160038201548152602001600482018054610e8e90613819565b80601f0160208091040260200160405190810160405280929190818152602001828054610eba90613819565b8015610f075780601f10610edc57610100808354040283529160200191610f07565b820191906000526020600020905b815481529060010190602001808311610eea57829003601f168201915b505050505081526020016005820160009054906101000a900460ff166002811115610f3557610f34612f74565b5b6002811115610f4757610f46612f74565b5b81525050915050919050565b610f5b612caa565b8060008111610f9f576040517f08c379a0000000000000000000000000000000000000000000000000000000008152600401610f9690613936565b60405180910390fd5b69d3c21bcecceda1000000811115610fec576040517f08c379a0000000000000000000000000000000000000000000000000000000008152600401610fe3906139a2565b60405180910390fd5b81600360003373ffffffffffffffffffffffffffffffffffffffff1673ffffffffffffffffffffffffffffffffffffffff168152602001908152602001600020600001600082825461103e91906137b6565b925050819055506001600360003373ffffffffffffffffffffffffffffffffffffffff1673ffffffffffffffffffffffffffffffffffffffff16815260200190815260200160002060040160006101000a81548160ff02191690831515021790555081600160008282546110b291906137b6565b925050819055503373ffffffffffffffffffffffffffffffffffffffff167fdd2a19c3bdd089cbe77c04f5655f83de0504d6140d12c8667646f55d0557c4dc83600360003373ffffffffffffffffffffffffffffffffffffffff1673ffffffffffffffffffffffffffffffffffffffff168152602001908152602001600020600001546040516111439291906139c2565b60405180910390a250611154612cf0565b50565b600081511161119b576040517f08c379a000000000000000000000000000000000000000000000000000000000815260040161119290613a37565b60405180910390fd5b600073ffffffffffffffffffffffffffffffffffffffff16600460003373ffffffffffffffffffffffffffffffffffffffff1673ffffffffffffffffffffffffffffffffffffffff16815260200190815260200160002060000160009054906101000a900473ffffffffffffffffffffffffffffffffffffffff1673ffffffffffffffffffffffffffffffffffffffff161461126c576040517f08c379a000000000000000000000000000000000000000000000000000000000815260040161126390613aa3565b60405180910390fd5b6040518060a001604052803373ffffffffffffffffffffffffffffffffffffffff168152602001828152602001600081526020016000815260200160011515815250600460003373ffffffffffffffffffffffffffffffffffffffff1673ffffffffffffffffffffffffffffffffffffffff16815260200190815260200160002060008201518160000160006101000a81548173ffffffffffffffffffffffffffffffffffffffff021916908373ffffffffffffffffffffffffffffffffffffffff16021790555060208201518160010190816113499190613c6f565b50604082015181600201556060820151816003015560808201518160040160006101000a81548160ff0219169083151502179055509050503373ffffffffffffffffffffffffffffffffffffffff167f951541f36062ba13dd22808af67f769bf6942ab3df1c89bb4b9625c9a3192c8d826040516113c79190613d41565b60405180910390a250565b60015481565b60046020528060005260406000206000915090508060000160009054906101000a900473ffffffffffffffffffffffffffffffffffffffff169080600101805461142190613819565b80601f016020809104026020016040519081016040528092919081815260200182805461144d90613819565b801561149a5780601f1061146f5761010080835404028352916020019161149a565b820191906000526020600020905b81548152906001019060200180831161147d57829003601f168201915b5050505050908060020154908060030154908060040160009054906101000a900460ff16905085565b60076020528060005260406000206000915090508060000160009054906101000a900473ffffffffffffffffffffffffffffffffffffffff16908060010160009054906101000a900473ffffffffffffffffffffffffffffffffffffffff169080600201549080600301549080600401805461153e90613819565b80601f016020809104026020016040519081016040528092919081815260200182805461156a90613819565b80156115b75780601f1061158c576101008083540402835291602001916115b7565b820191906000526020600020905b81548152906001019060200180831161159a57829003601f168201915b5050505050908060050160009054906101000a900460ff16905086565b6115dc612caa565b600460008373ffffffffffffffffffffffffffffffffffffffff1673ffffffffffffffffffffffffffffffffffffffff16815260200190815260200160002060040160009054906101000a900460ff1661166b576040517f08c379a000000000000000000000000000000000000000000000000000000000815260040161166290613daf565b60405180910390fd5b678ac7230489e800008110156116b6576040517f08c379a00000000000000000000000000000000000000000000000000000000081526004016116ad90613e1b565b60405180910390fd5b80600360003373ffffffffffffffffffffffffffffffffffffffff1673ffffffffffffffffffffffffffffffffffffffff16815260200190815260200160002060020154101561173b576040517f08c379a000000000000000000000000000000000000000000000000000000000815260040161173290613e87565b60405180910390fd5b80600360003373ffffffffffffffffffffffffffffffffffffffff1673ffffffffffffffffffffffffffffffffffffffff168152602001908152602001600020600201600082825461178d91906138b6565b9250508190555060006040518060c001604052803373ffffffffffffffffffffffffffffffffffffffff1681526020018473ffffffffffffffffffffffffffffffffffffffff1681526020014281526020018381526020016040518060200160405280600081525081526020016000600281111561180e5761180d612f74565b5b8152509050600560003373ffffffffffffffffffffffffffffffffffffffff1673ffffffffffffffffffffffffffffffffffffffff16815260200190815260200160002081908060018154018082558091505060019003906000526020600020906006020160009091909190915060008201518160000160006101000a81548173ffffffffffffffffffffffffffffffffffffffff021916908373ffffffffffffffffffffffffffffffffffffffff16021790555060208201518160010160006101000a81548173ffffffffffffffffffffffffffffffffffffffff021916908373ffffffffffffffffffffffffffffffffffffffff160217905550604082015181600201556060820151816003015560808201518160040190816119339190613c6f565b5060a08201518160050160006101000a81548160ff0219169083600281111561195f5761195e612f74565b5b02179055505050600660008473ffffffffffffffffffffffffffffffffffffffff1673ffffffffffffffffffffffffffffffffffffffff16815260200190815260200160002081908060018154018082558091505060019003906000526020600020906006020160009091909190915060008201518160000160006101000a81548173ffffffffffffffffffffffffffffffffffffffff021916908373ffffffffffffffffffffffffffffffffffffffff16021790555060208201518160010160006101000a81548173ffffffffffffffffffffffffffffffffffffffff021916908373ffffffffffffffffffffffffffffffffffffffff16021790555060408201518160020155606082015181600301556080820151816004019081611a869190613c6f565b5060a08201518160050160006101000a81548160ff02191690836002811115611ab257611ab1612f74565b5b021790555050508060076000600854815260200190815260200160002060008201518160000160006101000a81548173ffffffffffffffffffffffffffffffffffffffff021916908373ffffffffffffffffffffffffffffffffffffffff16021790555060208201518160010160006101000a81548173ffffffffffffffffffffffffffffffffffffffff021916908373ffffffffffffffffffffffffffffffffffffffff16021790555060408201518160020155606082015181600301556080820151816004019081611b869190613c6f565b5060a08201518160050160006101000a81548160ff02191690836002811115611bb257611bb1612f74565b5b02179055509050508273ffffffffffffffffffffffffffffffffffffffff163373ffffffffffffffffffffffffffffffffffffffff167f467d69c5cf78cf9047a33f50b83d44465d0f438ba055fd5b64c7c0e86bc4a99460085485604051611c1b9291906139c2565b60405180910390a360086000815480929190611c3690613ea7565b919050555050611c44612cf0565b5050565b600460003373ffffffffffffffffffffffffffffffffffffffff1673ffffffffffffffffffffffffffffffffffffffff16815260200190815260200160002060040160009054906101000a900460ff16611cd7576040517f08c379a0000000000000000000000000000000000000000000000000000000008152600401611cce90613f3b565b60405180910390fd5b816008548110611d1c576040517f08c379a0000000000000000000000000000000000000000000000000000000008152600401611d139061368f565b60405180910390fd5b6000825111611d60576040517f08c379a0000000000000000000000000000000000000000000000000000000008152600401611d5790613fa7565b60405180910390fd5b60006007600085815260200190815260200160002090503373ffffffffffffffffffffffffffffffffffffffff168160010160009054906101000a900473ffffffffffffffffffffffffffffffffffffffff1673ffffffffffffffffffffffffffffffffffffffff1614611e09576040517f08c379a0000000000000000000000000000000000000000000000000000000008152600401611e0090614013565b60405180910390fd5b60006002811115611e1d57611e1c612f74565b5b8160050160009054906101000a900460ff166002811115611e4157611e40612f74565b5b14611e81576040517f08c379a0000000000000000000000000000000000000000000000000000000008152600401611e789061407f565b60405180910390fd5b6000816004018054611e9290613819565b905014611ed4576040517f08c379a0000000000000000000000000000000000000000000000000000000008152600401611ecb906140eb565b60405180910390fd5b82816004019081611ee59190613c6f565b5060018160050160006101000a81548160ff02191690836002811115611f0e57611f0d612f74565b5b02179055508060030154600460003373ffffffffffffffffffffffffffffffffffffffff1673ffffffffffffffffffffffffffffffffffffffff1681526020019081526020016000206003016000828254611f6991906137b6565b925050819055506001600460003373ffffffffffffffffffffffffffffffffffffffff1673ffffffffffffffffffffffffffffffffffffffff1681526020019081526020016000206002016000828254611fc391906137b6565b925050819055508060000160009054906101000a900473ffffffffffffffffffffffffffffffffffffffff1673ffffffffffffffffffffffffffffffffffffffff163373ffffffffffffffffffffffffffffffffffffffff167fb3472a990849945a811e8b02252ab8c3e5218962a750ecedb491c9b55b2527b1868660405161204d92919061410b565b60405180910390a3837fa4030ee788364ad2db0b246a828edf422efb9e2f4a839c21723971d808b4323c60405160405180910390a250505050565b612090612caa565b80600360003373ffffffffffffffffffffffffffffffffffffffff1673ffffffffffffffffffffffffffffffffffffffff168152602001908152602001600020600201541015612115576040517f08c379a000000000000000000000000000000000000000000000000000000000815260040161210c90613e87565b60405180910390fd5b80600360003373ffffffffffffffffffffffffffffffffffffffff1673ffffffffffffffffffffffffffffffffffffffff168152602001908152602001600020600201600082825461216791906138b6565b925050819055503373ffffffffffffffffffffffffffffffffffffffff167fcdd4c59de26b3f8623e6012ab9bc32a995eda3452d89c941fc8af6b74276ad38826040516121b49190612df4565b60405180910390a26121c4612cf0565b50565b600073ffffffffffffffffffffffffffffffffffffffff16600460003373ffffffffffffffffffffffffffffffffffffffff1673ffffffffffffffffffffffffffffffffffffffff16815260200190815260200160002060000160009054906101000a900473ffffffffffffffffffffffffffffffffffffffff1673ffffffffffffffffffffffffffffffffffffffff1603612298576040517f08c379a000000000000000000000000000000000000000000000000000000000815260040161228f90614187565b60405180910390fd5b6001600460003373ffffffffffffffffffffffffffffffffffffffff1673ffffffffffffffffffffffffffffffffffffffff16815260200190815260200160002060040160006101000a81548160ff021916908315150217905550565b60036020528060005260406000206000915090508060000154908060010154908060020154908060030154908060040160009054906101000a900460ff16905085565b600460003373ffffffffffffffffffffffffffffffffffffffff1673ffffffffffffffffffffffffffffffffffffffff16815260200190815260200160002060040160009054906101000a900460ff166123c7576040517f08c379a00000000000000000000000000000000000000000000000000000000081526004016123be906141f3565b60405180910390fd5b6000600460003373ffffffffffffffffffffffffffffffffffffffff1673ffffffffffffffffffffffffffffffffffffffff16815260200190815260200160002060040160006101000a81548160ff021916908315150217905550565b6006602052816000526040600020818154811061244057600080fd5b9060005260206000209060060201600091509150508060000160009054906101000a900473ffffffffffffffffffffffffffffffffffffffff16908060010160009054906101000a900473ffffffffffffffffffffffffffffffffffffffff16908060020154908060030154908060040180546124bc90613819565b80601f01602080910402602001604051908101604052809291908181526020018280546124e890613819565b80156125355780601f1061250a57610100808354040283529160200191612535565b820191906000526020600020905b81548152906001019060200180831161251857829003601f168201915b5050505050908060050160009054906101000a900460ff16905086565b6000806000600154600254600854925092509250909192565b68056bc75e2d6310000081565b612580612caa565b600360003373ffffffffffffffffffffffffffffffffffffffff1673ffffffffffffffffffffffffffffffffffffffff16815260200190815260200160002060040160009054906101000a900460ff1661260f576040517f08c379a00000000000000000000000000000000000000000000000000000000081526004016126069061425f565b60405180910390fd5b68056bc75e2d6310000081111561265b576040517f08c379a0000000000000000000000000000000000000000000000000000000008152600401612652906142cb565b60405180910390fd5b80600360003373ffffffffffffffffffffffffffffffffffffffff1673ffffffffffffffffffffffffffffffffffffffff1681526020019081526020016000206000015410156126e0576040517f08c379a00000000000000000000000000000000000000000000000000000000081526004016126d79061435d565b60405180910390fd5b80600360003373ffffffffffffffffffffffffffffffffffffffff1673ffffffffffffffffffffffffffffffffffffffff168152602001908152602001600020600201600082825461273291906137b6565b925050819055506001600360003373ffffffffffffffffffffffffffffffffffffffff1673ffffffffffffffffffffffffffffffffffffffff168152602001908152602001600020600101600082825461278c91906137b6565b9250508190555042600360003373ffffffffffffffffffffffffffffffffffffffff1673ffffffffffffffffffffffffffffffffffffffff1681526020019081526020016000206003018190555080600260008282546127ec91906137b6565b925050819055503373ffffffffffffffffffffffffffffffffffffffff167f50c83292cbed2e0e82c326c455870ed0cfe292eb185581159265e76147d205ea82600360003373ffffffffffffffffffffffffffffffffffffffff1673ffffffffffffffffffffffffffffffffffffffff1681526020019081526020016000206001015460405161287d9291906139c2565b60405180910390a261288d612cf0565b50565b600560205281600052604060002081815481106128ac57600080fd5b9060005260206000209060060201600091509150508060000160009054906101000a900473ffffffffffffffffffffffffffffffffffffffff16908060010160009054906101000a900473ffffffffffffffffffffffffffffffffffffffff169080600201549080600301549080600401805461292890613819565b80601f016020809104026020016040519081016040528092919081815260200182805461295490613819565b80156129a15780601f10612976576101008083540402835291602001916129a1565b820191906000526020600020905b81548152906001019060200180831161298457829003601f168201915b5050505050908060050160009054906101000a900460ff16905086565b60025481565b6060600560008373ffffffffffffffffffffffffffffffffffffffff1673ffffffffffffffffffffffffffffffffffffffff168152602001908152602001600020805480602002602001604051908101604052809291908181526020016000905b82821015612be457838290600052602060002090600602016040518060c00160405290816000820160009054906101000a900473ffffffffffffffffffffffffffffffffffffffff1673ffffffffffffffffffffffffffffffffffffffff1673ffffffffffffffffffffffffffffffffffffffff1681526020016001820160009054906101000a900473ffffffffffffffffffffffffffffffffffffffff1673ffffffffffffffffffffffffffffffffffffffff1673ffffffffffffffffffffffffffffffffffffffff1681526020016002820154815260200160038201548152602001600482018054612b1890613819565b80601f0160208091040260200160405190810160405280929190818152602001828054612b4490613819565b8015612b915780601f10612b6657610100808354040283529160200191612b91565b820191906000526020600020905b815481529060010190602001808311612b7457829003601f168201915b505050505081526020016005820160009054906101000a900460ff166002811115612bbf57612bbe612f74565b5b6002811115612bd157612bd0612f74565b5b8152505081526020019060010190612a25565b505050509050919050565b6000806000806000600360008773ffffffffffffffffffffffffffffffffffffffff1673ffffffffffffffffffffffffffffffffffffffff1681526020019081526020016000206040518060a0016040529081600082015481526020016001820154815260200160028201548152602001600382015481526020016004820160009054906101000a900460ff161515151581525050905080600001518160400151826020015183608001519450945094509450509193509193565b600260005403612ce6576040517f3ee5aeb500000000000000000000000000000000000000000000000000000000815260040160405180910390fd5b6002600081905550565b6001600081905550565b6040518060c00160405280600073ffffffffffffffffffffffffffffffffffffffff168152602001600073ffffffffffffffffffffffffffffffffffffffff16815260200160008152602001600081526020016060815260200160006002811115612d6857612d67612f74565b5b81525090565b6000604051905090565b600080fd5b600080fd5b6000819050919050565b612d9581612d82565b8114612da057600080fd5b50565b600081359050612db281612d8c565b92915050565b600060208284031215612dce57612dcd612d78565b5b6000612ddc84828501612da3565b91505092915050565b612dee81612d82565b82525050565b6000602082019050612e096000830184612de5565b92915050565b600073ffffffffffffffffffffffffffffffffffffffff82169050919050565b6000612e3a82612e0f565b9050919050565b612e4a81612e2f565b8114612e5557600080fd5b50565b600081359050612e6781612e41565b92915050565b600060208284031215612e8357612e82612d78565b5b6000612e9184828501612e58565b91505092915050565b600081519050919050565b600082825260208201905092915050565b6000819050602082019050919050565b612ecf81612e2f565b82525050565b612ede81612d82565b82525050565b600081519050919050565b600082825260208201905092915050565b60005b83811015612f1e578082015181840152602081019050612f03565b60008484015250505050565b6000601f19601f8301169050919050565b6000612f4682612ee4565b612f508185612eef565b9350612f60818560208601612f00565b612f6981612f2a565b840191505092915050565b7f4e487b7100000000000000000000000000000000000000000000000000000000600052602160045260246000fd5b60038110612fb457612fb3612f74565b5b50565b6000819050612fc582612fa3565b919050565b6000612fd582612fb7565b9050919050565b612fe581612fca565b82525050565b600060c0830160008301516130036000860182612ec6565b5060208301516130166020860182612ec6565b5060408301516130296040860182612ed5565b50606083015161303c6060860182612ed5565b50608083015184820360808601526130548282612f3b565b91505060a083015161306960a0860182612fdc565b508091505092915050565b60006130808383612feb565b905092915050565b6000602082019050919050565b60006130a082612e9a565b6130aa8185612ea5565b9350836020820285016130bc85612eb6565b8060005b858110156130f857848403895281516130d98582613074565b94506130e483613088565b925060208a019950506001810190506130c0565b50829750879550505050505092915050565b600060208201905081810360008301526131248184613095565b905092915050565b600082825260208201905092915050565b600061314882612ee4565b613152818561312c565b9350613162818560208601612f00565b61316b81612f2a565b840191505092915050565b60008115159050919050565b61318b81613176565b82525050565b600060608201905081810360008301526131ab818661313d565b90506131ba6020830185612de5565b6131c76040830184613182565b949350505050565b600060c0830160008301516131e76000860182612ec6565b5060208301516131fa6020860182612ec6565b50604083015161320d6040860182612ed5565b5060608301516132206060860182612ed5565b50608083015184820360808601526132388282612f3b565b91505060a083015161324d60a0860182612fdc565b508091505092915050565b6000602082019050818103600083015261327281846131cf565b905092915050565b600080fd5b600080fd5b7f4e487b7100000000000000000000000000000000000000000000000000000000600052604160045260246000fd5b6132bc82612f2a565b810181811067ffffffffffffffff821117156132db576132da613284565b5b80604052505050565b60006132ee612d6e565b90506132fa82826132b3565b919050565b600067ffffffffffffffff82111561331a57613319613284565b5b61332382612f2a565b9050602081019050919050565b82818337600083830152505050565b600061335261334d846132ff565b6132e4565b90508281526020810184848401111561336e5761336d61327f565b5b613379848285613330565b509392505050565b600082601f8301126133965761339561327a565b5b81356133a684826020860161333f565b91505092915050565b6000602082840312156133c5576133c4612d78565b5b600082013567ffffffffffffffff8111156133e3576133e2612d7d565b5b6133ef84828501613381565b91505092915050565b61340181612e2f565b82525050565b600060a08201905061341c60008301886133f8565b818103602083015261342e818761313d565b905061343d6040830186612de5565b61344a6060830185612de5565b6134576080830184613182565b9695505050505050565b61346a81612fca565b82525050565b600060c08201905061348560008301896133f8565b61349260208301886133f8565b61349f6040830187612de5565b6134ac6060830186612de5565b81810360808301526134be818561313d565b90506134cd60a0830184613461565b979650505050505050565b600080604083850312156134ef576134ee612d78565b5b60006134fd85828601612e58565b925050602061350e85828601612da3565b9150509250929050565b6000806040838503121561352f5761352e612d78565b5b600061353d85828601612da3565b925050602083013567ffffffffffffffff81111561355e5761355d612d7d565b5b61356a85828601613381565b9150509250929050565b600060a0820190506135896000830188612de5565b6135966020830187612de5565b6135a36040830186612de5565b6135b06060830185612de5565b6135bd6080830184613182565b9695505050505050565b60006060820190506135dc6000830186612de5565b6135e96020830185612de5565b6135f66040830184612de5565b949350505050565b60006080820190506136136000830187612de5565b6136206020830186612de5565b61362d6040830185612de5565b61363a6060830184613182565b95945050505050565b7f496e76616c696420626f6f6b696e672049440000000000000000000000000000600082015250565b600061367960128361312c565b915061368482613643565b602082019050919050565b600060208201905081810360008301526136a88161366c565b9050919050565b7f4e6f7420617574686f72697a656420746f2063616e63656c0000000000000000600082015250565b60006136e560188361312c565b91506136f0826136af565b602082019050919050565b60006020820190508181036000830152613714816136d8565b9050919050565b7f43616e6e6f742063616e63656c20636f6d706c6574656420626f6f6b696e6700600082015250565b6000613751601f8361312c565b915061375c8261371b565b602082019050919050565b6000602082019050818103600083015261378081613744565b9050919050565b7f4e487b7100000000000000000000000000000000000000000000000000000000600052601160045260246000fd5b60006137c182612d82565b91506137cc83612d82565b92508282019050808211156137e4576137e3613787565b5b92915050565b7f4e487b7100000000000000000000000000000000000000000000000000000000600052602260045260246000fd5b6000600282049050600182168061383157607f821691505b602082108103613844576138436137ea565b5b50919050565b7f496e73756666696369656e74207374616b656420746f6b656e73000000000000600082015250565b6000613880601a8361312c565b915061388b8261384a565b602082019050919050565b600060208201905081810360008301526138af81613873565b9050919050565b60006138c182612d82565b91506138cc83612d82565b92508282039050818111156138e4576138e3613787565b5b92915050565b7f5374616b6520616d6f756e74206d75737420626520706f736974697665000000600082015250565b6000613920601d8361312c565b915061392b826138ea565b602082019050919050565b6000602082019050818103600083015261394f81613913565b9050919050565b7f5374616b6520616d6f756e742065786365656473206d6178696d756d00000000600082015250565b600061398c601c8361312c565b915061399782613956565b602082019050919050565b600060208201905081810360008301526139bb8161397f565b9050919050565b60006040820190506139d76000830185612de5565b6139e46020830184612de5565b9392505050565b7f4e616d652063616e6e6f7420626520656d707479000000000000000000000000600082015250565b6000613a2160148361312c565b9150613a2c826139eb565b602082019050919050565b60006020820190508181036000830152613a5081613a14565b9050919050565b7f416c726561647920726567697374657265640000000000000000000000000000600082015250565b6000613a8d60128361312c565b9150613a9882613a57565b602082019050919050565b60006020820190508181036000830152613abc81613a80565b9050919050565b60008190508160005260206000209050919050565b60006020601f8301049050919050565b600082821b905092915050565b600060088302613b257fffffffffffffffffffffffffffffffffffffffffffffffffffffffffffffffff82613ae8565b613b2f8683613ae8565b95508019841693508086168417925050509392505050565b6000819050919050565b6000613b6c613b67613b6284612d82565b613b47565b612d82565b9050919050565b6000819050919050565b613b8683613b51565b613b9a613b9282613b73565b848454613af5565b825550505050565b600090565b613baf613ba2565b613bba818484613b7d565b505050565b5b81811015613bde57613bd3600082613ba7565b600181019050613bc0565b5050565b601f821115613c2357613bf481613ac3565b613bfd84613ad8565b81016020851015613c0c578190505b613c20613c1885613ad8565b830182613bbf565b50505b505050565b600082821c905092915050565b6000613c4660001984600802613c28565b1980831691505092915050565b6000613c5f8383613c35565b9150826002028217905092915050565b613c7882612ee4565b67ffffffffffffffff811115613c9157613c90613284565b5b613c9b8254613819565b613ca6828285613be2565b600060209050601f831160018114613cd95760008415613cc7578287015190505b613cd18582613c53565b865550613d39565b601f198416613ce786613ac3565b60005b82811015613d0f57848901518255600182019150602085019450602081019050613cea565b86831015613d2c5784890151613d28601f891682613c35565b8355505b6001600288020188555050505b505050505050565b60006020820190508181036000830152613d5b818461313d565b905092915050565b7f546865726170697374206e6f7420616374697665000000000000000000000000600082015250565b6000613d9960148361312c565b9150613da482613d63565b602082019050919050565b60006020820190508181036000830152613dc881613d8c565b9050919050565b7f53657373696f6e2066656520746f6f206c6f7700000000000000000000000000600082015250565b6000613e0560138361312c565b9150613e1082613dcf565b602082019050919050565b60006020820190508181036000830152613e3481613df8565b9050919050565b7f496e73756666696369656e74206561726e656420746f6b656e73000000000000600082015250565b6000613e71601a8361312c565b9150613e7c82613e3b565b602082019050919050565b60006020820190508181036000830152613ea081613e64565b9050919050565b6000613eb282612d82565b91507fffffffffffffffffffffffffffffffffffffffffffffffffffffffffffffffff8203613ee457613ee3613787565b5b600182019050919050565b7f4e6f7420616e2061637469766520746865726170697374000000000000000000600082015250565b6000613f2560178361312c565b9150613f3082613eef565b602082019050919050565b60006020820190508181036000830152613f5481613f18565b9050919050565b7f49504653204349442063616e6e6f7420626520656d7074790000000000000000600082015250565b6000613f9160188361312c565b9150613f9c82613f5b565b602082019050919050565b60006020820190508181036000830152613fc081613f84565b9050919050565b7f4e6f7420796f757220626f6f6b696e6700000000000000000000000000000000600082015250565b6000613ffd60108361312c565b915061400882613fc7565b602082019050919050565b6000602082019050818103600083015261402c81613ff0565b9050919050565b7f426f6f6b696e67206e6f742070656e64696e6700000000000000000000000000600082015250565b600061406960138361312c565b915061407482614033565b602082019050919050565b600060208201905081810360008301526140988161405c565b9050919050565b7f5265706f727420616c72656164792075706c6f61646564000000000000000000600082015250565b60006140d560178361312c565b91506140e08261409f565b602082019050919050565b60006020820190508181036000830152614104816140c8565b9050919050565b60006040820190506141206000830185612de5565b8181036020830152614132818461313d565b90509392505050565b7f4e6f742072656769737465726564000000000000000000000000000000000000600082015250565b6000614171600e8361312c565b915061417c8261413b565b602082019050919050565b600060208201905081810360008301526141a081614164565b9050919050565b7f416c726561647920696e61637469766500000000000000000000000000000000600082015250565b60006141dd60108361312c565b91506141e8826141a7565b602082019050919050565b6000602082019050818103600083015261420c816141d0565b9050919050565b7f55736572206e6f74206163746976650000000000000000000000000000000000600082015250565b6000614249600f8361312c565b915061425482614213565b602082019050919050565b600060208201905081810360008301526142788161423c565b9050919050565b7f5265776172642065786365656473206d6178696d756d00000000000000000000600082015250565b60006142b560168361312c565b91506142c08261427f565b602082019050919050565b600060208201905081810360008301526142e4816142a8565b9050919050565b7f496e73756666696369656e74207374616b656420746f6b656e7320666f72207260008201527f6577617264000000000000000000000000000000000000000000000000000000602082015250565b600061434760258361312c565b9150614352826142eb565b604082019050919050565b600060208201905081810360008301526143768161433a565b905091905056fea26469706673582212205ec81842b7e4fd337b9535197efaf9be7dcb5594869ce150071aa0ac125b0ef764736f6c634300081c0033",
  "linkReferences": {},
  "deployedLinkReferences": {}
}